:020000040800F2
:10000000800800205D1600082D0200082F0200085D
:1000100033020008370200083B020008000000001D
:100020000000000000000000000000003F02000887
:1000300041020008000000004302000845020008D9
:10004000771600087716000877160008771600085C
:10005000771600087716000877160008771600084C
:10006000771600087716000877160008771600083C
:10007000771600087716000877160008771600082C
:10008000771600087716000877160008771600081C
:10009000771600087716000877160008771600080C
:1000A00077160008771600087716000877160008FC
:1000B000771600082B12000877160008771600083C
:1000C00077160008771600087716000877160008DC
:1000D00077160008FB150008771600087716000849
:1000E00077160008771600087716000877160008BC
:1000F00077160008771600087716000877160008AC
:10010000771600087716000877160008771600089B
:10011000CD15000877160008771600087716000836
:10012000771600087716000877160008771600087B
:1001300000F002F800F042F80AA090E8000C8244B7
:100140008344AAF10107DA4501D100F037F8AFF294
:10015000090EBAE80F0013F0010F18BFFB1A43F0A5
:10016000010318478C340000AC340000103A24BF5F
:1001700078C878C1FAD8520724BF30C830C144BF0C
:1001800004680C607047000000230024002500264E
:10019000103A28BF78C1FBD8520728BF30C148BFEA
:1001A0000B607047642902F0AD87782902F0E6877A
:1001B000002070471FB51FBD10B510BD03F058F9E2
:1001C0001146FFF7F7FF00F009F803F076F903B4E2
:1001D000FFF7F2FF03BC01F027F9000000BF01F0B8
:1001E000B9F84FF4A06001F059FA4FF4E13001F092
:1001F0003BF94FF4E13001F095F900F045FF00F0D4
:1002000069FF41F61F41632000F0E2FF03A002F006
:1002100045FF00F0E7FC00BFFEE700007379737450
:10022000656D20696E69740D0A000000704700BF9B
:10023000FEE700BFFEE700BFFEE700BFFEE7704736
:1002400070477047704700000CB500200190009087
:100250006C48006840F480306A49086000BF694813
:10026000006800F4003000900198401C0190009854
:1002700018B90198B0F5A06FF1D16248006800F498
:10028000003010B10120009001E0002000900098A3
:10029000012843D15C48006840F010005A490860CA
:1002A0000846006820F0030008600846006840F037
:1002B0000200086053484068524948600846406858
:1002C00048600846406840F48060486008464068DE
:1002D00020F47C1048600846406840F4E81048600C
:1002E0000846006840F08070086000BF454800681C
:1002F00000F000700028F9D04248406820F0030068
:10030000404948600846406840F00200486000BF2D
:100310003C48406800F00C000828F9D10CBD10B52D
:10032000FFF792FF10BD10B53648006840F001009D
:1003300034490860084640683449084031494860FB
:1003400008460068324908402E490860084600689F
:1003500020F4802008600846406820F4FE004860D1
:100360004FF41F008860FFF7DAFF4FF00060294963
:10037000086010BD10B5002100200022214B5B68F1
:1003800003F00C0121B1042906D0082928D107E087
:10039000214B224C236027E01F4B204C236023E09D
:1003A000184B5B6803F47010164B5B6803F48032E3
:1003B000022303EB904022B9194B4343174C2360AF
:1003C0000DE0104B5B6803F4003323B1144B43433F
:1003D000124C236003E0104B4343104C236003E0B6
:1003E0000D4B0E4C236000BF00BF064B5B68C3F390
:1003F00003130C4CE15C094B1B68CB40074C23609A
:1004000010BD000000100240002002400000FFF874
:10041000FFFFF6FE08ED00E000127A000000002069
:1004200000093D000400002070B504460D46294631
:10043000204601F007F82A462146F74801F060F807
:100440000222F6A1F44801F05BF870BD30B5024617
:100450000B460021002400BF04E0505C2044C4B2DD
:10046000481C81B29942F8DB2B2060435A2505EBEA
:100470004000C0B230BD7FB504460D46207861789B
:1004800040EA0120E6490880A0788870E078C870CA
:100490002079087160794871A0798871E07940B25B
:1004A0008872E048007890B1084690F90A0089798E
:1004B000DB4A5279DA4B1B79CDE90032CDE90210E3
:1004C000D748C37882780188D7A002F0E7FD7FBDC6
:1004D000F0B505460E460024002704222146641C80
:1004E0006A5400222146641C6A542146641C6A54E2
:1004F00021462846FFF7AAFF07462146641C6F5491
:100500003470F0BD2DE9F04105460F461646002433
:10051000A04684222146641C6A5408222146641C99
:100520006A5400222146641C6A5432782146641CB5
:100530006A54308802122146641C6A54B2782146FB
:10054000641C6A54F2782146641C6A54327921464C
:10055000641C6A5472792146641C6A54B27921463B
:10056000641C6A54B27A2146641C6A5421462846A7
:10057000FFF76CFF80462146641C05F801803C7043
:10058000BDE8F0812DE9FF4105460E4617460024DF
:10059000A0462146641C6F5404222146641C6A5400
:1005A00000222146641C6A5404222146641C6A54B9
:1005B0009DF80C202146641C6A549DF80D202146AC
:1005C000641C6A5421462846FFF740FF80462146B6
:1005D000641C05F801803480BDE8FF812DE9F047F7
:1005E00005460E4617460024A046A146A2460A220A
:1005F0002146641C6A5408222146641C6A54002265
:100600002146641C6A542146641C6A543A78214687
:10061000641C6A54E01E1FFA80F885F801804FEAD6
:100620002820A87021462846FFF710FF8146214662
:10063000641C05F801903470BDE8F0872DE9F04F97
:1006400004460F46904699460025AA46AB4600262A
:100650000A2229466D1C6254082229466D1C6254E8
:10066000002229466D1C6254012229466D1C6254E9
:1006700000BF07E018F806202846691C8DB22254F6
:10068000701C86B24E45F5DBE81E1FFA80FA84F82E
:1006900001A04FEA2A20A07029462046FFF7D6FE87
:1006A00083462846691C8DB204F800B03D70BDE851
:1006B000F08F2DE9F04F04460F46904699460025ED
:1006C000AA46AB4600260A2229466D1C625408221F
:1006D00029466D1C6254002229466D1C6254022278
:1006E00029466D1C625400BF07E018F80620284612
:1006F000691C8DB22254701C86B24E45F5DBE81E93
:100700001FFA80FA84F801A04FEA2A20A070294637
:100710002046FFF79BFE83462846691C8DB204F8ED
:1007200000B03D70BDE8F08F30B5B3B0402123A8D4
:1007300002F0ECFD00202290382114A802F0E6FD22
:10074000454903C9CDE912010624342105A802F068
:10075000DDFD41490831D1E900208968CDE9022059
:1007600004910925032001903C48007800283FD1DE
:100770003B48007830B1012812D002281FD003284E
:1007800034D12BE001AA22A923A8FFF727FF9DF867
:10079000881023A8FFF748FE01203049087026E0A2
:1007A000234612AA22A923A8FFF748FF9DF8881024
:1007B00023A8FFF739FE01202849087017E02B46CF
:1007C00002AA22A923A8FFF774FF9DF8881023A886
:1007D000FFF72AFE01202149087008E00521214881
:1007E000FFF722FE01201D49087000E000BF00BF96
:1007F00033B030BD10B500224B1EC25C184B1B78C5
:10080000032B32D082BB0023144C2370144B1B7873
:100810005B1C134C23702FE0004C00400D0A0000BD
:100820005C0000202C0000205B496E666F5D20C8D4
:10083000D5C6DACAB1BCE4A3BA25642D25642D253A
:100840006420253032643A253032643A25303264EF
:100850002025640D0A000000103500081600002055
:10086000170000200B35000806E00023FE4C237023
:10087000FE4C2370FE4C237010BD2DE9FE4706464A
:100880008846174699460025AA460024F94A07CA11
:100890008DE8070000BF08E007EB4400407817F838
:1008A00014100DF80100601CC4B24C45F4DB822228
:1008B0002846691C8DB2325410222846691C8DB21C
:1008C000325400222846691C8DB23254002407E0BD
:1008D0001DF804202846691C8DB23254601CC4B235
:1008E0000B2CF5DB002406E000222846691C8DB2A3
:1008F0003254601CC4B2062CF6DB29463046FFF7A2
:10090000A5FD82462846691C8DB206F800A0A8F80D
:100910000050BDE8FE8730B58BB004460D46206818
:100920000890606809902089ADF82800A07A8DF8B9
:100930002A00D148007800B39DF82A009DF82910BC
:100940009DF828209DF82730CDE90432CDE9061026
:100950009DF826009DF825109DF824209DF8233051
:10096000CDE90032CDE902109DF822309DF821201A
:100970009DF82010C14802F091FB0BB030BD70B55E
:1009800004460E46257815B1032D26D124E02079A2
:100990000006E17840EA0140A17840EA0120617850
:1009A0000843B7498860207A0006E17940EA0140AF
:1009B000A17940EA012061790843B149C860207BF0
:1009C0000006E17A40EA0140A17A40EA0120617A1A
:1009D0000843AB49086101E000E000BF00BFA64842
:1009E000007830B1A6480369C2688168A5A002F00A
:1009F00055FB70BDF8B504460E46257815B1032D9C
:100A000018D116E060789E490870A078C870E07828
:100A10008870207948709848007848B10846C078B6
:100A200000900846837842780178A0A002F036FB57
:100A300001E000E000BF00BFF8BD2DE9F84F04461B
:100A40008A46257815B1032D2DD12BE06078A17849
:100A500040EA01208A49C880E078217940EA0120F3
:100A60008749888084480078D8B108468088642106
:100A700090FBF1F201FB12078148808890FBF1F8AE
:100A80007F48C08890FBF1F201FB12067C48C088C9
:100A900090FBF1F943463246494691A0009702F097
:100AA000FDFA01E000E000BF00BFBDE8F88F70B5BF
:100AB00004460E462578FF2D05D000209149087088
:100AC0000846457002E001208E4908706A480078A7
:100AD00028B18C48427801788BA002F0DFFA70BD13
:100AE0002DE9F04104460D462678681E275CA02EAD
:100AF0001DD006DC822E5FD0842E09D08A2E64D1D0
:100B000051E0A12E22D0A72E3ED0AC2E5DD12CE0FC
:100B10005948007810B185A002F0C0FA281F81B2B0
:100B2000E01CFFF7A8FC00204F49087057E052482E
:100B3000007810B185A002F0B1FA281F81B2E01C44
:100B4000FFF71DFF00204849087048E04A48007838
:100B500010B186A002F0A2FA281F81B2E01CFFF7B4
:100B600049FF00204049087039E04348007810B13F
:100B700088A002F093FA281F81B2E01CFFF75DFF06
:100B80000020394908702AE03B48007810B188A05D
:100B900002F084FA281F81B2E01CFFF788FF0020D2
:100BA000314908701BE0281F81B2E01CFFF722FECC
:100BB00000202D49087012E0281F81B2E01CFFF7C9
:100BC000AAFE00202849087009E02B48007810B1DF
:100BD0007EA002F063FA00202349087000BF00BF26
:100BE000BDE8F08110B592B00124402102A802F0C6
:100BF0008DFB0020019001208DF800000F208DF862
:100C00000100082077490870012048707649087073
:100C1000002C27D01848007810B174A002F03EFADA
:100C200004217948FFF700FC01200F49087000BF3C
:100C30000D4800780028FBD10F48007810B173A050
:100C400002F02CFA68480378664A01A902A8FFF767
:100C500014FEBDF8041002A8FFF7E6FB01200249CC
:100C60000870E3E08EE1000016000020170000206D
:100C700018000020680000202C00002060350008CB
:100C8000480000205B496E666F5D20B2BDCAFDA3BF
:100C9000BA25642C20BFA8C2B7C0EFA3BA25642C24
:100CA00020BEE0C0EBA3BA25640D0A005B496E6666
:100CB0006F5D20D0C4C2CA25642C20D1AAD1F5A36F
:100CC000BA256425252C20CAD5CBF5D1B9A3BA25E0
:100CD000642C20CAE6D5C5D1B9A3BA25640D0A0093
:100CE0005B496E666F5D20B6EECEC2A3BA25642E58
:100CF00025642C20CAD6CEC2A3BA25642E25642C26
:100D00000D0A0000140000205B496E666F5D20B381
:100D1000E4B5E7D7B4CCACA3BA25642C20B5E7C1C1
:100D2000BFA3BA25642C0D0A000000005B496E6663
:100D30006F5D20BDE2CEF6CAD6BBB7C8D5C6DACA4B
:100D4000B1BCE4CAFDBEDD0D0A0000005B496E6661
:100D50006F5D20BDE2CEF6CAD6BBB7D4CBB6AFA18D
:100D6000A2CBAFC3DFCAFDBEDD0D0A005B496E66D4
:100D70006F5D20BDE2CEF6CAD6BBB7D0C4C2CAA151
:100D8000A2D1AAD1B9A1A2D1AAD1F5CAFDBEDD0DC9
:100D90000A0000005B496E666F5D20BDE2CEF6CAB8
:100DA000D6BBB7CEC2B6C8CAFDBEDD0D0A00000074
:100DB0005B496E666F5D20BDE2CEF6CAD6BBB7B5A5
:100DC000E7B3D8B5E7C1BF0D0A0000005B457272FA
:100DD0006F5D20554E4B4E4F574E20444154410DB0
:100DE0000A00000073000020190000205B496E66B5
:100DF0006F5D20BBF1C8A1CDF3B1EDC5E4D6C3D77B
:100E0000B4CCAC0D0A000000FB3400085B496E66F0
:100E10006F5D20C9E8D6C3CFFBCFA2CDA8D6AAD795
:100E2000DCBFAAB9D820BFAA0D0A000000BF5648EF
:100E300000780028FBD15548007810B154A002F08A
:100E40002DF904215948FFF7EFFA01204E490870A7
:100E500000BF4D4800780028FBD14C48007810B105
:100E600053A002F01BF9212201A902A8009BFFF761
:100E700089FBBDF8041002A8FFF7D6FA0120424909
:100E8000087000BF404800780028FBD13F48007838
:100E900010B14FA002F002F92C2201A902A8009B78
:100EA000FFF770FBBDF8041002A8FFF7BDFA0120A0
:100EB0003549087000BF344800780028FBD133481A
:100EC000007810B14AA002F0E9F804214D48FFF77C
:100ED000ABFA01202C49087000BF2B48007800288D
:100EE000FBD12A48007810B147A002F0D7F80521BD
:100EF0004B48FFF799FA01202349087000BF2248A8
:100F000000780028FBD12148007810B145A002F0FC
:100F1000C5F805214948FFF787FA01201A490870EA
:100F200000BF194800780028FBD11848007810B19C
:100F300043A002F0B3F805214648FFF775FA0120F7
:100F40001149087000BF104800780028FBD10F48F5
:100F5000007810B140A002F0A1F804214348FFF747
:100F600063FA01200849087000BF0748007800288C
:100F7000FBD10648007810B13DA002F08FF80120A7
:100F80004049087012B010BD160000202C0000204F
:100F90005B496E666F5D20C9E8D6C3CDA8D6AACFDF
:100FA000EEBFAAB9D820BFAA0D0A0000FF3400087E
:100FB0005B496E666F5D20C9E8D6C3D0C4C2CAD78C
:100FC000D4B6AFBCECB2E220BFAA0D0A000000000C
:100FD0005B496E666F5D20C9E8D6C3CEC2B6C8D77E
:100FE000D4B6AFBCECB2E220BFAA0D0A00000000EC
:100FF0005B496E666F5D20B6C1C8A1CAB1BCE40D85
:101000000A000000E43400085B496E666F5D20B69C
:10101000C1C8A1D4CBB6AFCAFDBEDD0D0A00000029
:10102000E83400085B496E666F5D20B6C1C8A1D088
:10103000C4C2CACAFDBEDD0D0A000000ED340008BE
:101040005B496E666F5D20B6C1C8A1CEC2B6C80D41
:101050000A000000F63400085B496E666F5D20B63A
:10106000C1C8A1B5E7C1BF0D0A000000F2340008F5
:101070005B496E666F5D20B7A2CBCDCFFBCFA20DD3
:101080000A0000001800002008B50121482000F0E7
:101090008FFE2020ADF8000010208DF80300032003
:1010A0008DF802006946094800F0C6FB2021074878
:1010B00000F06FFC2020ADF800006946044800F005
:1010C000BBFB2021024800F064FC08BD000C01407D
:1010D0000018014008B50121442000F069FE1C20E1
:1010E000ADF8000048208DF803006946354800F04F
:1010F000A3FB0120ADF8000028208DF8030069460D
:10110000314800F099FB08BD10B5044614B1012028
:101110002E4908702D480078002837D01021294822
:1011200000F01DFC78B10821264800F018FC50B1F1
:101130000421244800F013FC28B10121224800F0CA
:101140000EFC012822D10A2000F041F900201F499D
:10115000087010211B4800F002FC08B9012010BDE6
:101160000821184800F0FBFB08B90220F7E704212A
:10117000144800F0F4FB08B90320F0E701211248FD
:1011800000F0EDFB01281BD10420E8E710210D48F9
:1011900000F0E5FB012813D108210A4800F0DFFB2D
:1011A00001280DD10421074800F0D9FB012807D1FF
:1011B0000121054800F0D3FB10B901200349087054
:1011C0000020CCE700180140000801401A00002070
:1011D0007FB505460C460121022000F0F6FDADF872
:1011E0000850ADF804400020ADF80A00ADF8060044
:1011F00001A9494801F018F901221146464801F0B9
:101200008AFC1D208DF8000000208DF801000320CD
:101210008DF8020001208DF80300684600F043FAC3
:1012200001213D4801F05CFC7FBD70B501213A48C9
:1012300001F01FFF00286ED00121374801F02AFF7E
:101240003648006808B9012000E0002033490860F2
:101250003348007820B133480088401C3149088069
:10126000304800880A2807DD00202D4908702D49E4
:10127000088001202C4908702C48007820B12C48A7
:101280000088401C2A490880294800880A2807DD70
:101290000020264908702649088001202549087049
:1012A0002148007880B1244804782146234800F082
:1012B000C9F822462149224800F022F900201E499F
:1012C0000880194908700FE0681CC5B21E2095FB04
:1012D000F0F100FB115038B91A48006808B9012034
:1012E00000E00020174908601248007870B11648E5
:1012F0000188164800F0A6F8134801881348FFF744
:10130000EFFB0020104908800A4908701048007857
:1013100008B1FFF709FA70BD0004004094012342B0
:101320002E0000201C0000202D0000203000002096
:101330001E0000202F00002028000020890000202F
:10134000004C0040948121422A00002051010020DD
:101350001800002010B56FF0040000F0EEF92E48E0
:1013600000682E49B0FBF1F02D490870084600785E
:1013700000EB4001C1EBC0104FF6FF7101EAC00065
:101380002849088010BD0146254A12784A434FF08B
:10139000E0235A6100229A611A46126942F0010262
:1013A0001A6100BF4FF0E022106900F001021AB18B
:1013B00000F48032002AF5D04FF0E022126922F0CA
:1013C00001024FF0E0231A6100229A617047014642
:1013D000144A12884A434FF0E0235A6100229A616E
:1013E0001A46126942F001021A6100BF4FF0E02272
:1013F000106900F001021AB100F48032002AF5D021
:101400004FF0E022126922F001024FF0E0231A614E
:1014100000229A61704700000000002000127A004C
:10142000200000202200002000BF704700BF7E4A3D
:10143000128802F04002002AF9D0C2B27A4B1B1D7A
:101440001A80704770B505460E46002400BF05E0BF
:10145000295D76A001F022FE601C84B2B442F7DB65
:1014600074A001F01BFE70BD10B586B004460121CA
:1014700044F2040000F09CFC4FF40070ADF814003E
:1014800003208DF8160018208DF8170005A96A486A
:1014900000F0D2F94FF48060ADF8140004208DF80C
:1014A000170005A9644800F0C7F925208DF8000051
:1014B00003208DF801008DF8020001208DF8030053
:1014C000684600F0F0F801940020ADF80800ADF88F
:1014D0000A00ADF80C00ADF810000C20ADF80E00BD
:1014E00001A9514800F00BFD012240F225514E4860
:1014F00000F09DFD01214C4800F08DFD06B010BDAF
:1015000010B50B46002100BF09E000BF048804F0BD
:101510004004002CFAD05C5C84804C1CA1B2914247
:10152000F3DB10BD10B586B004460121102000F099
:101530003FFC0121C80400F048FC4FF48060ADF886
:10154000140003208DF8160018208DF8170005A947
:101550003A4800F071F94FF40060ADF8140004202F
:101560008DF8170005A9354800F066F934208DF88C
:10157000000003208DF801008DF8020001208DF895
:101580000300684600F08FF801940020ADF80800D1
:10159000ADF80A00ADF80C00ADF810000C20ADF865
:1015A0000E0001A9264800F0AAFC012240F22551B4
:1015B000234800F03CFD40F22661214800F046FE41
:1015C00001211F4800F027FD06B010BD10B540F204
:1015D00025511B4800F010FE70B1194800F08CFD39
:1015E000C4B2012017490870174801880088401CC0
:1015F000154A10801548445410BD10B540F22551CD
:10160000094800F0F9FD70B1074800F075FDC4B25B
:1016100001200F4908700F4801880088401C0D4ABE
:1016200010800D48445410BD003801402530325818
:10163000200000000D0A00000008014000100140D9
:10164000004C0040300000202A0000205101002002
:101650002E00002028000020890000200948804733
:1016600009480047FEE7FEE7FEE7FEE7FEE7FEE784
:10167000FEE7FEE7FEE7FEE704480549054A064B9C
:101680007047000027030008310100088002002095
:10169000800800208004002080040020314901439C
:1016A000314A1160704770B5002100230F22C478C1
:1016B00004B32D4C246804F4E064C4F5E064210A0A
:1016C000C1F10403CA40447804FA03F18478144059
:1016D00021430901254C0678A155047804F01F0523
:1016E0000124AC4005786D11AD0005F1E025C5F889
:1016F000004109E0047804F01F050124AC401C4DB2
:101700000678761145F8264070BD1A4A0A40024311
:10171000154B1B1F1A60704739B1134A121D12680E
:101720000243114B1B1D1A6006E00F4A121D12687E
:1017300082430D4B1B1D1A607047042808D14FF0DF
:10174000E021096941F004014FF0E022116107E056
:101750004FF0E021096921F004014FF0E02211610E
:10176000704700000000FA050CED00E000E400E026
:1017700080E100E080FFFF1F10B50446CC488442A2
:1017800008D10121042000F02DFB0021042000F0ED
:1017900029FB46E0C748844208D10121082000F017
:1017A00021FB0021082000F01DFB3AE0C2488442E2
:1017B00008D10121102000F015FB0021102000F0BD
:1017C00011FB2EE0BD48844208D10121202000F009
:1017D00009FB0021202000F005FB22E0B8488442EC
:1017E00008D10121402000F0FDFA0021402000F046
:1017F000F9FA16E0B348844208D10121802000F0B4
:10180000F1FA0021802000F0EDFA0AE0AE488442AF
:1018100007D10121801500F0E5FA0021A01500F0A4
:10182000E1FA10BD10B50121084600F0DBFA0021F5
:10183000012000F0D7FA10BD2DE9F0410246002545
:101840000026002000230024002791F803C00CF09C
:101850000F0591F803C00CF0100CBCF1000F03D081
:1018600091F802C04CEA050591F800C0BCF1000FE8
:1018700031D0146800202BE04FF0010C0CFA00F37B
:10188000B1F800C00CEA03069E4220D183004FF05D
:101890000F0C0CFA03F7BC4305FA03FC4CEA0404F2
:1018A00091F803C0BCF1280F06D14FF0010C0CFADF
:1018B00000FCC2F814C00AE091F803C0BCF1480F64
:1018C00005D14FF0010C0CFA00FCC2F810C0401C0E
:1018D0000828D1D31460B1F800C0BCF1FF0F34DD8B
:1018E000546800202EE000F1080C4FF0010808FABF
:1018F0000CF3B1F800C00CEA03069E4221D183002C
:101900004FF00F0C0CFA03F7BC4305FA03FC4CEA4A
:10191000040491F803C0BCF1280F05D100F1080CB4
:1019200008FA0CF8C2F8148091F803C0BCF1480F13
:1019300007D100F1080C4FF0010808FA0CF8C2F8C2
:101940001080401C0828CED35460BDE8F0814FF6CB
:10195000FF710180022181700421C170704702462D
:10196000002093680B400BB1012000E0002070477D
:101970000146886880B2704702460020D3680B4059
:101980000BB1012000E0002070470146C86880B21A
:10199000704701617047416170470AB1016100E021
:1019A00041617047C16070474FF480320A438261E1
:1019B0008161826182698269704702460020434BDF
:1019C00018684FF68073184040EA021008433F4BF6
:1019D000186070473E49C8617047F0B50A46002359
:1019E00000240021002500F00046B6F1004F02D18E
:1019F000364EF16901E0354E7168C0F3034583B29C
:101A000000F44016B6F5401F08D121F070612F4E4A
:101A1000766826F070662D4F7E6012E000F4801626
:101A2000B6F5801F06D1032606FA05F4A14341F05E
:101A3000706106E0460D360103FA06F6B14341F047
:101A4000706122B1460D360103FA06F6314300F00B
:101A50000046B6F1004F02D11C4EF16101E01B4E71
:101A60007160F0BD30B500228B071C0F0F2303FA05
:101A700004F2164B08338C1053F824309343134C64
:101A800008348D1044F8253023468C1053F8243048
:101A90008C07240F00FA04F423430C4C08348D10F7
:101AA00044F8253030BD0A49DC3108607047000039
:101AB00000080140000C01400010014000140140EA
:101AC00000180140001C01400020014000000140BE
:101AD00000002042DF48006840F00100DD49086056
:101AE00008464068DC490840DA4948600846006812
:101AF000DA490840D74908600846006820F4802089
:101B000008600846406820F4FE0048604FF41F005B
:101B100088607047CF49096821F48031CD4A11604F
:101B20001146096821F480211160B0F5803F03D08F
:101B3000B0F5802F0ED106E0C649096841F4803126
:101B4000C44A116007E0C349096841F4A021C14AB1
:101B5000116000E000BF00BF704710B501460022D1
:101B6000002300204A11012A02D1BA4C236806E062
:101B7000022A02D1B74C236A01E0B64C636A01F035
:101B80001F02012494401C400CB1012000E0002001
:101B900010BD38B5002000900024002500BF312082
:101BA000FFF7DBFF05460098401C00900098B0F559
:101BB000A06F01D0002DF2D03120FFF7CEFF08B189
:101BC000012400E00024204638BD01460020A14A3F
:101BD000106820F0F80040EAC10010607047A0498A
:101BE00008607047024600209A4B586820F47C1029
:101BF00042EA01031843974B5860704798490866BA
:101C0000704701460020934A506820F003000843C3
:101C1000506070478F48406800F00C0070470146E4
:101C200000208C4A506820F0F00008435060704754
:101C300001460020874A506820F4E0600843506065
:101C4000704701460020834A506820F4605040EA03
:101C5000C1005060704729B17E4A527A02437D4BE1
:101C60005A7204E07B4A527A82437A4B5A72704726
:101C70007B49D8310860704701460020754A50689A
:101C800020F440400843506070470021714A2032E0
:101C90001170704A82F82010012802D004280AD15D
:101CA00004E001216B4A2032117005E00521694AE8
:101CB0002032117000E000BF00BF70476949086022
:101CC00070476449096A0143624A11627047654975
:101CD00044390860704730B50021002200240023F9
:101CE0005C4D6D6805F00C0121B1042905D008296F
:101CF00023D105E05C4D056022E05B4D05601FE0EF
:101D0000544D6D6805F47012524D6D6805F48034C1
:101D1000022505EB92421CB9544D554305600BE07A
:101D20004C4D6D6805F400351DB1504D55430560AF
:101D300002E04D4D5543056002E04B4D056000BF8C
:101D400000BF444D6D6805F0F0010909484D6B5C1A
:101D50000568DD4045603F4D6D6805F4E061090AA6
:101D6000434D6B5C4568DD4085603A4D6D6805F418
:101D70006051C90A3E4D6B5C4568DD40C560354D1C
:101D80006D6805F44041890B3A4D6B5CC568B5FB45
:101D9000F3F5056130BD29B12E4A526902432D4B3E
:101DA0005A6104E02B4A526982432A4B5A617047B8
:101DB00029B1284A92690243264B9A6104E0254AD8
:101DC00092698243234B9A61704729B1214AD269B3
:101DD0000243204BDA6104E01E4AD26982431D4B64
:101DE000DA61704729B11B4AD2680243194BDA60A5
:101DF00004E0184AD2688243164BDA60704729B172
:101E0000144A12690243134B1A6104E0114A126921
:101E10008243104B1A61704712494039086070477D
:101E20000F49C86470470B49C87170470948406A38
:101E300040F0807007494862704701460020054A1B
:101E400092680A400AB1012000E000207047014971
:101E500088727047001002400000FFF8FFFFF6FE96
:101E6000000042428004424200127A0000093D0014
:101E7000310000204100002010B50446FB48844298
:101E800009D101218803FFF7ADFF00214FF4804005
:101E9000FFF7A8FF32E0F648844209D10121480447
:101EA000FFF7ADFF00214FF40030FFF7A8FF25E05A
:101EB000F048844209D101218804FFF7A0FF0021E6
:101EC0004FF48020FFF79BFF18E0EB48844209D1D4
:101ED0000121C804FFF793FF00214FF40020FFF712
:101EE0008EFF0BE0E548844208D101210805FFF789
:101EF00086FF00214FF48010FFF781FF10BD2DE910
:101F0000F04786B005460E460024A24600BFA14613
:101F10000027B08900B100BF2F462C8A4CF6FF7015
:101F20000440F08804432C82AC894EF6F310044040
:101F3000B08831890843718908430443AC81AC8A75
:101F40004FF6FF400440B0890443AC8201A8FFF77C
:101F5000C2FEC648874202D1DDF810A001E0DDF8DC
:101F60000CA0A88900F4004040B10AEBCA0000EBC5
:101F70000A1031684900B0FBF1F807E00AEBCA002B
:101F800000EB0A1031688900B0FBF1F86420B8FB5F
:101F9000F0F004012009642101FB1089A88900F4F4
:101FA000004040B1322000EBC900B0FBF1F000F07E
:101FB0000700044308E0322000EB09106421B0FB65
:101FC000F1F000F00F0004432C8106B0BDE8F0876B
:101FD0004FF41651016000218180C18001810C21E4
:101FE000418100218181704710B502460020108A8E
:101FF0004FF2FF0318400B884C8823438C882343FF
:10200000CC8823431843108210BD002101804180F9
:102010008180C180704721B1828942F4005282815F
:1020200004E082894DF6FF731A4082817047F0B553
:102030000346002400260025002040F66A17B94216
:1020400000D100BF1846C1F3421401F01F0601275A
:1020500007FA06F5012C01D10C3004E0022C01D165
:10206000103000E014301AB107682F43076002E017
:102070000768AF430760F0BD1AB1838A0B438382C0
:1020800002E0838A8B4383827047028A4FF6F073A3
:102090001A400282028A0A430282704782894FF202
:1020A000FF731A40828182890A438281704721B17D
:1020B000828942F00202828104E082894FF6FD7338
:1020C0001A4082817047028A4FF6DF731A400282FB
:1020D000028A0A430282704721B1028A42F4804296
:1020E000028204E0028A4BF6FF731A4002827047B4
:1020F000C1F308028280704701468888C0F3080057
:102100007047818941F0010181817047028BD2B211
:102110000283028B42EA012202837047028B02F49F
:102120007F420283028B0A430283704721B1828A75
:1021300042F02002828204E0828A4FF6DF731A4066
:102140008282704721B1828A42F01002828204E0CA
:10215000828A4FF6EF731A408282704721B1828AD9
:1021600042F00802828204E0828A4FF6F7731A4036
:102170008282704721B1828942F40042828103E069
:102180008289C2F30E028281704721B1828A42F4B1
:102190000062828204E0828A4FF2FF731A408282D8
:1021A0007047828A4FF6FB731A408282828A0A4302
:1021B0008282704721B1828A42F00202828204E068
:1021C000828A4FF6FD731A408282704702460020D1
:1021D000B1F5007F00D100BF13880B400BB1012087
:1021E00000E00020704701F40072B2F5007F00D1DA
:1021F00000BFCA430280704770B502460024002326
:102200000025002040F66A16B14200D100BFC1F39C
:10221000421501F01F03012606FA03F3012D02D136
:102220009689334006E0022D02D1168A334001E040
:10223000968A33400C12012606FA04F416883440BC
:1022400013B10CB1012000E0002070BD10B50022D8
:10225000002340F66A14A14200D100BF0A120124F3
:102260009440A3B2DC43048010BD0000003801405C
:102270000044004000480040004C00400050004036
:1022800010B50446FE48844208D10121C014FFF76E
:10229000A9FD0021E014FFF7A5FDC4E0B4F1804FD3
:1022A00008D101210846FFF7AAFD00210120FFF710
:1022B000A6FDB8E0F348844208D101210220FFF7CF
:1022C0009EFD00210220FFF79AFDACE0EE4884421B
:1022D00008D101210420FFF792FD00210420FFF71F
:1022E0008EFDA0E0E948844208D101210820FFF7D3
:1022F00086FD00210820FFF782FD94E0E448844237
:1023000008D101211020FFF77AFD00211020FFF7EE
:1023100076FD88E0DF48844208D101212020FFF7C4
:102320006EFD00212020FFF76AFD7CE0DA48844240
:1023300008D101214014FFF755FD00216014FFF77B
:1023400051FD70E0D548844209D10121C804FFF74E
:1023500049FD00214FF40020FFF744FD63E0D04821
:10236000844209D101210805FFF73CFD00214FF40B
:102370008010FFF737FD56E0CA48844209D1012199
:102380004805FFF72FFD00214FF40010FFF72AFD4D
:1023900049E0C548844208D101214020FFF72FFDC4
:1023A00000214020FFF72BFD3DE0C048844208D1CA
:1023B00001218020FFF723FD00218020FFF71FFD72
:1023C00031E0BB48844208D101218015FFF717FD99
:1023D0000021A015FFF713FD25E0B648844209D17E
:1023E00001210804FFF7FEFC00214FF48030FFF7C5
:1023F000F9FC18E0B048844209D101214804FFF7F4
:10240000F1FC00214FF40030FFF7ECFC0BE0AB488F
:10241000844208D101218804FFF7E4FC00214FF435
:102420008020FFF7DFFC10BD00220288944B984209
:102430000ED0994B98420BD0B0F1804F08D0914B01
:10244000984205D0904B984202D0904B984204D1CC
:102450004FF68F731A404B881A438D4B984207D022
:102460008C4B984204D04FF6FF431A40CB881A4356
:1024700002808B8883850B880385814B98420BD023
:10248000854B984208D08B4B984205D08A4B984296
:1024900002D08A4B984201D10B7A038601238382B2
:1024A000704770B5002400220023058C4FF6FE769D
:1024B00035400584028C8388048B4FF68F752C4041
:1024C000B51E2C400D882C43751E2A400D892A43C9
:1024D0004D882A436A4DA8420BD06F4DA84208D0C0
:1024E000744DA84205D0744DA84202D0734DA84245
:1024F00013D14FF6F7752A404D892A434FF6FB75E5
:102500002A408D882A434FF6FF652B404FF6FF5532
:102510002B408D892B43CD892B4383800483CD8829
:102520008586028470BD70B5002400220023058CCE
:102530004FF6EF7635400584028C8388048B48F68D
:10254000FF752C404FF6FF452C400D884FF6FF7667
:1025500006EA05252C434FF6DF752A400D8906EA69
:1025600005152A434D8806EA05152A43444DA8421D
:1025700002D0494DA8421DD14FF67F752A404D89A2
:102580004FF6FF7606EA05152A434FF6BF752A4037
:102590008D8806EA05152A434FF6FF352B404FF28A
:1025A000FF752B408D8906EA85052B43CD8906EA08
:1025B00085052B4383800483CD880587028470BD05
:1025C00070B5002400220023058C4FF6FF663540CD
:1025D0000584028C8388848B4FF68F752C404FF6D0
:1025E000FC752C400D882C434FF6FF552A400D8971
:1025F0004FF6FF7606EA05252A434D8806EA0525AB
:102600002A431F4DA84202D0234DA8421DD14FF2AC
:10261000FF752A404D894FF6FF7606EA05252A43C5
:102620004FF6FF352A408D8806EA05252A434EF6E7
:10263000FF752B404DF6FF752B408D8906EA051579
:102640002B43CD8906EA05152B4383808483CD88EF
:102650008587028470BD70B5002200230024058C9C
:102660004EF6FF7635400584038C8488828B48F6CD
:10267000FF752A404FF6FF452A400D8820E00000F4
:10268000002C01400004004000080040000C004005
:10269000001000400014004000340140004C014094
:1026A000005001400054014000180040001C004050
:1026B000002000400040014000440140004801402B
:1026C0004FF6FF7606EA05252A434DF6FF752B40A7
:1026D0000D8906EA05352B434D8806EA05352B435F
:1026E000FA4DA84202D0FA4DA84208D14BF6FF7528
:1026F0002C408D894FF6FF7606EA85152C438480A1
:102700008283CD88A0F84050038470BD828B4FF245
:10271000FF331A408283828B4FF6FF7303EA012353
:102720001A4382837047F0B50C46154600220021FB
:102730000026078C4EF6FF7C07EA0C070784828B85
:10274000018C4FF6FF7707EA043640F6FF473A4020
:102750004FF6FF7707EA05273A434FF6FF7707EA78
:1027600003373A43D94FB8420ED0D94FB8420BD0B5
:10277000B0F1804F08D0D74FB84205D0D64FB842FD
:1027800002D0D64FB84206D14DF6FF77394046F415
:102790008057394305E047F6FF57394044F48057E6
:1027A000394382830184F0BD828B4FF6F3731A4064
:1027B0008283828B0A4382837047F0B50C461546AC
:1027C000002200210026078C4FF6FF6C07EA0C0759
:1027D0000784828B018C4FF6FF7707EA04264FF6B9
:1027E0000C773A404FF6FF7707EA03172F433A4337
:1027F000B64FB8420ED0B64FB8420BD0B0F1804FB2
:1028000008D0B44FB84205D0B34FB84202D0B34F4E
:10281000B84206D14FF6FF57394046F48077394326
:1028200005E04FF2FF57394044F480773943828303
:102830000184F0BD028B4FF2FF331A400283028BFA
:102840004FF6FF7303EA01231A4302837047F0B582
:102850000C461546002200210026078C4FF6EF7C1F
:1028600007EA0C070784028B018C4FF6FF7707EA13
:10287000041640F6FF473A404FF6FF7707EA033762
:102880003A434FF6FF7707EA05273A438F4FB8429E
:102890000ED08F4FB8420BD0B0F1804F08D08D4F83
:1028A000B84205D08C4FB84202D08C4FB84206D106
:1028B0004FF6DF77394046F01007394305E04FF611
:1028C0005F77394044F01007394302830184F0BD3B
:1028D000028B4FF6F3731A400283028B0A43028382
:1028E0007047F0B50C46154600220021068C4FF6C5
:1028F000FE773E400684028B018C4FF60C76324008
:102900007E1C06EA03162E433243704EB0420ED0B0
:102910006F4EB0420BD0B0F1804F08D06D4EB04238
:1029200005D06D4EB04202D06C4EB04206D14FF68B
:10293000FD76314044F00106314305E04FF6F5766F
:10294000314044F00106314302830184F0BD70B58B
:1029500005460C465D4885420ED05D4885420BD049
:10296000B5F1804F08D05B48854205D05A48854272
:1029700002D05A48854200D100E000BF208850B9FB
:102980002389A28861882846FFF7ABFFE1882846A3
:10299000FFF79EFF25E0208804280AD12389A2881A
:1029A00061882846FFF753FFE1882846FFF742FF7A
:1029B00017E0208808280AD12389A2886188284640
:1029C000FFF7FBFEE1882846FFF7EEFE09E02389CA
:1029D000A28861882846FFF7A6FEE1882846FFF70F
:1029E00095FE70BD2DE9F04105460C4600260127F5
:1029F000608808B9022600E00026A088012801D1DD
:102A0000022700E001272088A0B92389A2886188D5
:102A10002846FFF766FFE1882846FFF759FF23891C
:102A20003A4631462846FFF712FFE1882846FFF76D
:102A300001FF13E02389A28861882846FFF707FF7A
:102A4000E1882846FFF7F6FE23893A4631462846B4
:102A5000FFF747FFE1882846FFF73AFFBDE8F0811E
:102A60000A884B881A438B881A43CB881A430B89F0
:102A70001A434B891A438B891A43A0F844207047A4
:102A80004FF6FF71818000210180C1804180017279
:102A900070470021018041808180C1800181418196
:102AA0008181C181704700210180418001218180A5
:102AB0000021C18001817047002101804180818017
:102AC000C18001814181818170470000002C01405B
:102AD000003401400004004000080040000C0040A9
:102AE00021B1028842F00102028004E002884FF620
:102AF000FE731A400280704731B1B0F8442042F4AE
:102B00000042A0F8442005E0B0F84420C2F30E02D1
:102B1000A0F8442070471AB183890B43838102E0F7
:102B200083898B43838170478182704741EA020326
:102B3000A0F8483070471AB183890B43838102E0C3
:102B400083898B438381704701894FF6F872114066
:102B5000018170470A46002101894FF68F731940A1
:102B600011430181704730B504460D462946204681
:102B7000FFF7F0FF208940F00700208130BD2DE9EC
:102B8000F04104460D4616461F46602D06D13B46D1
:102B9000012231462046FFF75AFE05E03B4601225E
:102BA00031462046FFF79DFE29462046FFF7D2FF1B
:102BB000208940F007002081BDE8F08130B50C4647
:102BC00000210189C9B24FF6FF7505EA03251543B7
:102BD00025432943018130BD2DE9F04105460E46CC
:102BE00017469846002443463A4631462846FFF7A2
:102BF000E5FF2C894FF6F870044044F007044FF6C7
:102C00008F70044044F070042C81BDE8F081F0B571
:102C100004460D4616461F463B4632462946204688
:102C2000FFF7CCFF208940F480402081F0BD018572
:102C3000828270470A46002101884FF68F7319403F
:102C4000114301807047F0B50C4615461E46002121
:102C5000002200230189028B038C4FF6F87739405C
:102C600021434FF6FC473A4040F201173A434FF6F2
:102C7000DD773B404FF6FF7707EA06172F433B43CC
:102C8000018102830384F0BD0A460021018B4FF6C7
:102C90008F7319401143018370470A460021018B4D
:102CA00048F6FF7319404FF6FF7303EA02231943F6
:102CB000018370470A460021818B4FF68F731940BC
:102CC0001143818370470A460021818B48F6FF73C8
:102CD00019404FF6FF7303EA0223194381837047BB
:102CE00021B1028842F08002028004E002884FF69F
:102CF0007F731A400280704721B1828842F004023B
:102D0000828004E082884FF6FB731A40828070470D
:102D100021B1828842F00802828004E082884FF666
:102D2000F7731A408280704721B1828842F0010215
:102D3000828004E082884FF6FE731A4082807047DA
:102D40000A460021018B4FF6F773194011430183A6
:102D500070470A460021018B4FF2FF7319404FF66E
:102D6000FF7303EA02231943018370470A460021D7
:102D7000818B4FF6F77319401143818370470A46E0
:102D80000021818B4FF2FF7319404FF6FF7303EA66
:102D900002231943818370470A460021018B4FF6B5
:102DA000FB7319401143018370470A460021018BD0
:102DB0004FF6FF3319404FF6FF7303EA022319431E
:102DC000018370470A460021818B4FF6FB7319403F
:102DD0001143818370470A460021818B4FF6FF33F0
:102DE00019404FF6FF7303EA0223194381837047AA
:102DF0000A460021018B4FF67F731940114301836E
:102E000070470A460021018BC1F30E014FF6FF7394
:102E100003EA02231943018370470A460021818B8C
:102E20004FF67F7319401143818370470A46002192
:102E3000818BC1F30E014FF6FF7303EA022319439E
:102E4000818370470A460021018C4FF6FD731940BB
:102E50001143018470470A460021018C4FF6F77335
:102E600019401143018470470A460021018C4FF636
:102E7000DF7319404FF6FF7303EA0213194301840D
:102E800070470A460021018C4FF67F7319404FF6B8
:102E9000FF7303EA02131943018470470A460021B5
:102EA000018C4FF6FF5319404FF6FF7303EA0223DC
:102EB0001943018470470A460021018C4FF2FF73C9
:102EC00019404FF6FF7303EA022319430184704748
:102ED0000A460021018C4DF6FF7319404FF6FF732F
:102EE00003EA023319430184704730B500230124FB
:102EF0008C40A3B2048C9C430484048C02FA01F538
:102F0000ADB22C43048430BD30B5002304248C4082
:102F1000A3B2048C9C430484048C02FA01F5ADB284
:102F20002C43048430BD70B50346002000241846AD
:102F3000183001258D40ACB21D8CA5431D8409B10C
:102F4000082909D100EB6100056825F070050560CE
:102F50000568154305600EE00D1FC5F34E052844B6
:102F6000056825F4E045056005684FF6FF7606EA3A
:102F700002263543056070BD21B1028842F002028D
:102F8000028004E002884FF6FD731A400280704709
:102F900021B1028842F00402028004E002884FF668
:102FA000FB731A400280704721B1828842F0800290
:102FB000828004E082884FF67F731A4082807047D7
:102FC00002884FF6F7731A40028002880A43028093
:102FD000704782884FF68F731A40828082880A4336
:102FE0008280704702894FF6F8731A400281028985
:102FF0000A430281704702894FF67F731A400281AB
:1030000002890A4302817047818470478185704735
:10301000818670470187704781877047A0F840100C
:10302000704702884FF6FF431A40028002880A4325
:10303000028070470146888E70470146088F7047AE
:103040000146888F70470146B1F84000704701463D
:10305000888C70470146088D704702460020138A0D
:103060000B400BB1012000E000207047CA430282F0
:10307000704730B50246002000230024158A05EA77
:103080000103958905EA010413B10CB1012000E0A8
:10309000002030BDCA430282704770470FB4044914
:1030A00010B503AA029800F0B5F910BC5DF814FB46
:1030B0002400002070B5044685690068C10601D56A
:1030C000302600E02026C00707D070BDD4E90121DA
:1030D00030469047206A401C20626D1EF6D570BDB8
:1030E00070B5044685690078C00707D170BDD4E982
:1030F000012120209047206A401C20626D1EF6D5D9
:1031000070BD00002DE9F0410646002410687529C5
:10311000314616A510D0AFF30080002802DA4042F5
:1031200013A507E031688A0701D512A502E0490717
:1031300004D511A5012401E0AFF3008000210A228B
:1031400006F1240709E0B0FBF2FCB0FBF2F302FB4E
:103150001C00303078541846491C0028F3D123460F
:103160002A463046BDE8F04100F0FBB80000000000
:103170002D0000002B0000002000000070B5044668
:103180000D4621461068AFF300802188090502D55D
:103190000F4A7A4402E00E4A7A440E32002104F1CA
:1031A000240305E000F00F060009965D5E54491CFB
:1031B0000028F7D120780023000704D5702D02D015
:1031C00009B1022311322046BDE8704000F0C9B8B1
:1031D0008E0300002DE9F05F894604464FF0000A97
:1031E000DFF824B1FB44C0F820A02046E1688847FE
:1031F00000287DD0252806D0D4E901219047206AF7
:10320000401C2062F1E700255F462046E1688847C0
:103210002028064607DB312E05D2B81910F8200CFD
:1032200008B10543F1E7A80701D525F00405C4F866
:103230001CA00027C4F818A02A2E09D0304600F0A0
:1032400049F938B304EB8708303EC8F8186019E034
:1032500059F8041B204604EB87029161E168884716
:10326000012F064618D1E069002820DA25F0200554
:103270001DE0D8F8180000EB800006EB4000303865
:10328000C8F818002046E1688847064600F022F991
:103290000028EED1012F0AD02E2E08D12046E16859
:1032A00088477F1C0646022F45F02005C4DBA06935
:1032B000002803DA404245F00105A061E80701D08B
:1032C00025F01005A6B1A6F14100192802D8203634
:1032D00045F400654A463146204625604D46FCF7D8
:1032E00061FF60B1012807D0ED1D25F0070000E067
:1032F00007E000F1080978E705F1040975E73046B1
:103300007AE7206ABDE8F09F640300004FF00002F6
:1033100000B5134694469646203922BFA0E80C50CB
:10332000A0E80C50B1F12001BFF4F7AF090728BFA6
:10333000A0E80C5048BF0CC05DF804EB890028BF22
:1033400040F8042B08BF704748BF20F8022B11F04B
:10335000804F18BF00F8012B7047704770477047C7
:1033600070472DE9F0470D4699469246044600F114
:1033700024080168880604D5E06921F01001216065
:1033800000E00120A84201DD471B00E00027A16901
:103390007A1902EB0900081AA0612078C00602D44D
:1033A0002046FFF787FE002608E0D4E901211AF83D
:1033B00006009047206A401C761C20624E45F4DBD4
:1033C0002078C0060AD52046FFF774FE06E0D4E94F
:1033D000012130209047206A401C2062381EA7F14E
:1033E0000107F4DC07E0D4E9012118F80500904753
:1033F000206A401C2062281EA5F10105F3DC20464E
:10340000FFF76EFE2078000602D50220BDE8F087A7
:103410000120FBE7074B70B50D467B4400F011F827
:103420000446284600F020F810B14FF0FF3070BD80
:10343000204670BD0FE0FFFF01694A1C0261087859
:10344000704700B58FB0CDE90131002105910549E4
:103450007944CDE9031011466846FFF7BBFE0FB073
:1034600000BD0000E5FFFFFF007B00F0800070471B
:10347000754600F02BF8AE4605006946534620F02D
:103480000700854618B020B5FEF7F6F8BDE82040E5
:103490004FF000064FF000074FF000084FF0000B10
:1034A00021F00701AC46ACE8C009ACE8C009ACE8C3
:1034B000C009ACE8C0098D46704710B50446AFF3AB
:1034C00000802046BDE81040FCF781BE00487047F0
:1034D0001C02002030380A2801D201207047002049
:1034E00070470000040000B22001000070210100BC
:1034F00000C6270000742C010000780200000609B5
:1035000000006009040001030000100A0100030E1E
:10351000E5BCA0E4B8890000E4BDA0E5A5BDEF9539
:103520008A00000030313233343536373839414281
:103530004344454640305800303132333435363715
:1035400038396162636465664030780004000008C1
:103550000000000000000002000100001000000058
:103560005B496E666F5D20C6C1C4BBC1C1B6C8A34E
:10357000BA25642025252CC1C1C6C1CAB1BCE4A3AB
:10358000BA256420732CD6F7CCE2A3BA25642CD3D9
:10359000EFD1D4A3BA25642CB5A5CEBBA3BA2564BC
:1035A0002CCAB1BCE4D6C6CABDA3BA25642CB7AD3B
:1035B000CDF3A3BA25642CD2F4C0D6BFD8D6C6A307
:1035C000BA25642CCFFBCFA2BFAAB9D8A3BA256471
:1035D0002CCFB0B9DFB7BDCABDA3BA25642CCEC20B
:1035E000B6C8B5A5CEBBA3BA25640D0A000000007D
:1035F0001036000800000020480000006C010008A0
:1036000058360008480000203808000088010008EB
:1036100000A24A04000000000000000001020304B0
:10362000060708090000000000000100000000007B
:103630000000000000000000000000000100000089
:103640000000000000010203040102030406070851
:08365000090204060800000055
:0400000508000131BD
:00000001FF
